:020000040800F2
:10000000080A00206D0200086F2C0008C72A0008AB
:100010006D2C00084913000811340008000000008E
:10002000000000000000000000000000D32C0008C9
:100030004B15000800000000D12C0008592D0008C5
:10004000870200088702000887020008870200086C
:10005000870200088702000887020008870200085C
:10006000870200088702000887020008870200084C
:10007000870200088702000887020008870200083C
:10008000870200088702000887020008870200082C
:10009000B9130008870200088702000887020008D9
:1000A000870200088702000887020008870200080C
:1000B00087020008870200088702000887020008FC
:1000C00087020008870200088702000887020008EC
:1000D00087020008A533000887020008870200088D
:1000E00087020008870200088702000887020008CC
:1000F00087020008870200088702000887020008BC
:1001000087020008870200088702000887020008AB
:10011000870200088702000887020008870200089B
:10012000870200088702000887020008870200088B
:10013000870200088702000887020008870200087B
:10014000870200088702000887020008870200086B
:10015000870200088702000887020008870200085B
:10016000870200088702000887020008870200084B
:1001700087020008870200088702000800000000CC
:10018000870200088702000887020008870200082B
:10019000870200088702000887020008870200081B
:1001A00087020008870200088702000800F002F8B2
:1001B00000F04CF80AA090E8000C82448344AAF1B5
:1001C0000107DA4501D100F041F8AFF2090EBAE8B3
:1001D0000F0013F0010F18BFFB1A43F0010318477B
:1001E000BC390000DC390000103A24BF78C878C15F
:1001F000FAD8520724BF30C830C144BF04680C602D
:10020000704700000023002400250026103A28BF74
:1002100078C1FBD8520728BF30C148BF0B60704778
:10022000662903F06784642900F08280002070470B
:100230001FB503F05AFC00F035FB0400002000213C
:1002400003F0C6FBE0601FBD10B510BD00F046FC1A
:100250001146FFF7EDFF03F07FF900F064FC03B4F3
:10026000FFF7F2FF03BC03F0ECF8000009488047F9
:1002700009480047FEE7FEE7FEE7FEE7FEE7FEE788
:10028000FEE7FEE7FEE7FEE704480549054A064BA0
:10029000704700005D2D0008AD0100080804002033
:1002A000080A002008060020080600207047000009
:1002B0000FB4044910B503AA029800F0E1FA10BC8B
:1002C0005DF814FB200000202DE9F0410E460446A5
:1002D000002020622046E168884730B3252805D0F9
:1002E000D4E901219047206A401CF2E7E1682046EA
:1002F00000278847050018D0A5F14100192802D829
:1003000020354FF400673246294620462760FFF724
:1003100087FF40B1012804D0F61D26F007060836F5
:10032000D8E7361DD6E72846DAE7206ABDE8F0812F
:100330002DE9F0410646002410687529314616A5BE
:1003400010D0AFF30080002802DA404213A507E086
:1003500031688A0701D512A502E0490704D511A525
:10036000012401E0AFF3008000210A2206F12407F6
:1003700009E0B0FBF2FCB0FBF2F302FB1C003030F2
:1003800078541846491C0028F3D123462A463046A3
:10039000BDE8F04100F00CB8000000002D000000A6
:1003A0002B00000020000000704770477047704726
:1003B0002DE9F0470D4699469246044600F124087F
:1003C0000168880604D5E06921F01001216000E091
:1003D0000120A84201DD471B00E00027A1697A192E
:1003E00002EB0900081AA0612078C00602D420465A
:1003F000AFF30080002608E0D4E901211AF80600D6
:100400009047206A401C761C20624E45F4DB207821
:10041000C0060AD52046AFF3008006E0D4E90121EA
:1004200030209047206A401C2062381EA7F1010747
:10043000F4DC07E0D4E9012118F805009047206AB0
:10044000401C2062281EA5F10105F3DC2046AFF315
:1004500000802078000602D50220BDE8F087012048
:10046000FBE770472DE9FF4F0C461E464FF0FF3764
:100470008BB0D2E90001DDF860800A908A46C1F3B2
:100480000A5505B93D46002108464FF00000BAF173
:10049000000F00F4400005DA00EB80004FF440014B
:1004A00001EA50004FEA9059B9F1010F00DDB94659
:1004B0000A9850EA4A000ED044F61050A5F2FF35D3
:1004C00045432F14B8F1000F1ED07542291E1EDDC2
:1004D000C9F100021CE0B8F1010F4FF0000001D09B
:1004E000302103E0F24305E02154401CB042FBDB25
:1004F00030460022002121540B99C1F80880C1E93F
:1005000000200FB0BDE8F08FBD1B6D1CDEE74A4632
:1005100000DA694206A800F067FA06AB93E8070024
:1005200003AB83E8070050460A9900F045FB8DE8CD
:100530000700A0F500501F3800900398002D0ADD39
:1005400042F21F014A460844002303A9039068466B
:1005500000F0AEFD09E0A0F500504A461F38002328
:1005600003A90390684600F0B8FD8DE80700000479
:10057000000C03D04FF0FF30410800E01046B8F106
:10058000000F03D00022009215461EE0751E05D410
:1005900000F08CF9303262556D1EF9D5B346012258
:1005A000084302D000227F1C04E02078302801D1CB
:1005B00000227F1E002A099784D01DE0112D07DA42
:1005C00000F074F9303262556D1C50EA0102F5D129
:1005D000084302D00098C8B10EE00021681E05E073
:1005E000235C625C63542254401E491C8142F7DB49
:1005F000AB46A81B401E0990002004F80B000B9886
:10060000099AC0F80880C0E9002B7AE711264FF05C
:10061000000857E72DE9F04F88460446D21D22F026
:10062000070191B0D1E90001CDE90A0102F0F1FE24
:1006300002460B98C00F01D02D2007E020688107EB
:1006400001D52B2002E0202101EAC000032A0990F5
:1006500001D0072A05DB03464146204600F084F915
:100660000BE12078800601D5E06900E00620B8F1B2
:10067000650F814606D0B8F1660F18D0B8F1670F44
:1006800070D131E00020B9F1110F009001DB11238E
:1006900001E009F101030AAA01A90CA8FFF7E2FE93
:1006A000DDE90C70002609F10105834647E00120D1
:1006B0004B4600904FF000470AAA01A90CA8FFF78B
:1006C000D1FEDDE90DB00C995D46002610B909F1A7
:1006D00001000D18B9EB050003D4C0F1FF3609F194
:1006E0000105A5EB09002BE0B9F1010F01DA4FF08C
:1006F00001090020B9F1110F0090484601DD1123D6
:1007000000E003460AAA01A90CA8FFF7ABFEDDE949
:100710000C704D4600268346207800070AD4AB456E
:1007200000DA5D4601A8012D04DD411911F8011C14
:10073000302907D04F4502DA17F1040F04DA0120FF
:1007400082460FE06D1EEEE7002F02DCED1B3E44FB
:1007500003E0781CA84200DD7D1CB81B00F1010AF3
:100760004FF000472078000703D4AA4501DB4FF083
:10077000FF3A0021B7F1004F0DF143088DF8431007
:1007800024D002202B23002F01DA7F422D230A21BF
:10079000021EA0F1010000DC5FB197FBF1FC97FBAA
:1007A000F1F201FB1C7C17460CF1300C08F801CD6E
:1007B000EEE7A8F1010003702188090501D5452164
:1007C00000E06521A0F1010800F8011C09980FA9BB
:1007D000A1EB0807FF1D00B10120411901EBEA70F0
:1007E000A1693844081A401EA0612078C00602D4CE
:1007F0002046AFF30080099828B1D4E90121904741
:10080000206A401C20622078C00622D52046AFF323
:1008100000801EE0002E04DBB34502DD01A8805DF0
:1008200000E03020D4E901219047206A401C20627A
:10083000761CAAF101005FEA000A0AD100F032F842
:10084000C0680168405CD4E901219047206A401CDF
:100850002062281EA5F10105DCDC07E0D4E90121B6
:1008600018F8010B9047206A401C2062381EA7F13F
:100870000107F3DC2046AFF30080032011B041E60E
:10088000074B70B50D467B4400F05BF804462846E4
:1008900000F01CF910B14FF0FF3070BD204670BD64
:1008A0004B2C000000487047C803002030B5B0F161
:1008B0000A024FEA900E71F100034EEA817EB0EB1E
:1008C0000E0061EB91014FEA101E4EEA017E10EB23
:1008D0000E0041EB11114FEA102E4EEA016E10EBA3
:1008E0000E0041EB11214FEA104E4EEA014E10EB83
:1008F0000E0041EB1141401841F100014FEAD000D8
:1009000040EA41704FEAD10110EB80054FEA8104C3
:1009100044EA907444EB01046D1944EB0404521B47
:10092000A3414FF0000348BF0A3200D530BD401C40
:1009300041F1000130BD000001694A1C02610878E4
:10094000704700B58FB0CDE901310021059105490F
:100950007944CDE9031011466846FFF7B5FC0FB0A6
:1009600000BD0000E5FFFFFF2DE9F0411F460446F2
:1009700003260168072A01F4006004DB08B116A50C
:1009800005E016A503E008B115A500E015A521F0C6
:1009900010002060A069C01EA0610FB1401EA061C0
:1009A0002046AFF300804FB1D4E90121384690478B
:1009B000206A401C2062C01C206206E0206AFAE720
:1009C000D4E9012115F8010B9047761EF8D2204694
:1009D000AFF30080BDE8F0814E414E006E616E00C5
:1009E000494E4600696E66002DE9F047814616467D
:1009F0008AB0354878440DC88DE80D0032487844F7
:100A0000801C03AC0DC884E80D0041F69B300844FF
:100A1000372190FBF1F290FBF1F5A5F1800501FB88
:100A200012041B3C02D56442012000E00020DFF8E4
:100A300098A080460027FA44AAF1BE0A0EE0E0071B
:100A40000AD03246684607EB470101230AEB8101D1
:100A500000F043FB8DE8070064107F1C002CEED1F2
:100A6000194F7F44AE3F19E0E80715D007EB04109B
:100A70000DF1180A90E80E008AE80E00C068F042F6
:100A800001D1981908903246012306A903A800F065
:100A900024FB03AB83E807006D10641C002DE3D139
:100AA0004FF0010332466946B8F1000F03A802D0A7
:100AB00000F0FEFA01E000F010FBC9E90001C9F8FE
:100AC00008200AB0BDE8F0878C310000007B00F000
:100AD0008000704700487047A80300207546FFF764
:100AE000F9FFAE4605006946534620F007008546EB
:100AF00018B020B5FFF7C8FBBDE820404FF0000656
:100B00004FF000074FF000084FF0000B21F00701F5
:100B1000AC46ACE8C009ACE8C009ACE8C009ACE838
:100B2000C0098D46704710B50446AFF300802046DB
:100B3000BDE81040FFF793BB4FF0013C50F8042B89
:100B400051F8043B9A4221D1A2EB0C03934313EAE0
:100B5000CC1317D150F8042B51F8043B9A4215D10D
:100B6000A2EB0C03934313EACC130BD150F8042BE4
:100B700051F8043B9A4209D1A2EB0C03934313EAC8
:100B8000CC13DBD04FF00000704700BFD01A01BA81
:100B9000B1FA81F101F0180122FA01F0CB40C1F164
:100BA0002001DBB2C0B2C01A2CFA01F3D11A914372
:100BB00011EAC311E6D170475FEA400C08BF91F01B
:100BC000000F4FEA8C234FEAC12243EA51514FEA0A
:100BD0001C5018BF00F5F0404FEA300018BF41F03C
:100BE00000415FEA6C5C00F02980BCF1FF3F08BF68
:100BF00040F080407047130C06BF12044FF0100CF9
:100C00004FF0000C130E04BF12020CF1080C130F6E
:100C100004BF12010CF1040C930F04BF92000CF1FD
:100C2000020CD30F04BF52000CF1010C11464FF01F
:100C30000002A0F11F00A0EB0C00704711F0004F64
:100C400008BF704731F000413FF4D5AF0B0C06BF31
:100C500009044FF0100C4FF0000C0B0E04BF0902FA
:100C60000CF1080C0B0F04BF09010CF1040C8B0FE5
:100C700004BF89000CF1020CCB0F04BF49000CF13A
:100C8000010CCCF12003A0EB0C0022FA03F302FAD2
:100C90000CF241EA030100F10100704720F07F4CA3
:100CA00080EA030023F07F47ACEB070303F57C5396
:100CB00000F0004003F1FF032DE980494FEA154B96
:100CC00009B44FEA144325EA0B4E24EA03480FF215
:100CD000042606EB132749083E785FEA320203FB3D
:100CE0000667C7F5000707FB06F64FEA54374FEAD9
:100CF000D64606F1020607FB066CCCF1005C4FEA13
:100D00001C472CEA074C07FB06F40CFB06F504EB2A
:100D100015464FEA961634BF00204FF000404FEAC8
:100D2000D13706FB07FC4FEA1C4C0CFB0BF7D21B20
:100D300003FB0CF761EB07010CFB0EF7B0EB074070
:100D400072EB17420CFB08F734BFA2EB0742B2EB81
:100D5000074261EB17414FEA0C444FEA910706FB4B
:100D600007FC4FEA1C4C0CFB0BF7B0EBC74072EBD7
:100D7000573203FB0CF734BFA2EBC742B2EBC742BA
:100D800061EB57310CFB0EF7B0EBC70072EB5772FB
:100D90000CFB08F734BFA2EBC702B2EBC70261EB52
:100DA0005771039F4FEA816141EA921104EBCC0431
:100DB0004FEAD1374FEA826206FB07FC42EA901203
:100DC0004FEA80604FEA1C4C0CFB0BF7D21B03FB75
:100DD0000CF761EB07010CFB0EF7B0EB074072EB71
:100DE00017420CFB08F734BFA2EB0742B2EB0742F5
:100DF00061EB17414FEA8C554FEA910704EB9C24B5
:100E000006FB07FC4FEA1C4C0CFB0BF7B0EBC74092
:100E100072EB573203FB0CF734BFA2EBC742B2EBC5
:100E2000C74261EB57310CFB0EF7B0EBC70072EB1A
:100E300057720CFB08F734BFA2EBC702B2EBC70234
:100E400061EB577115EB4C254FEA816141EA921134
:100E50004FEA82624FEAD13742EA901206FB07FC62
:100E600044F100044FEA80604FEA1C4C0CFB0BF786
:100E7000D21B03FB0CF761EB07010CFB0EF7B0EB89
:100E8000074072EB17420CFB08F734BFA2EB074296
:100E9000B2EB074261EB174115EB1C154FEA8131AC
:100EA00041EA92414FEA823242EA90424FEA803070
:100EB0004FEA0C7644F1000448EA03434EEA0B483B
:100EC0004FF0000EB2EB080C71EB030724BF624633
:100ED00039464EEB0E0E4FF0000B001852414941BF
:100EE0004BEB0B0BB2EB080C71EB03077BF1000B28
:100EF00024BF624639464EEB0E0E4FF0000B001831
:100F0000524149414BEB0B0BB2EB080C71EB030761
:100F10007BF1000B24BF624639464EEB0E0E51EAC0
:100F2000020718BF46F0010616EB0E7655F10002D7
:100F300054F1000103D5BDE88901BDE80088BDE892
:100F40008901BDE80048B619524141EB0101A3F106
:100F50000103704780807F7E7D7C7B7A797877760D
:100F600076757473727171706F6E6E6D6C6C6B6A86
:100F70006A69686867666665646463636261616024
:100F8000605F5F5E5E5D5D5C5C5B5B5A5A595958A1
:100F9000585757565655555554545353525252510B
:100FA000515050504F4F4F4E4E4D4D4D4C4C4C4B61
:100FB0004B4B4A4A4A4949494848484747474746A8
:100FC00046464545454444444443434343424242E4
:100FD00042414141002B9C4630D477002BD01CB5B8
:100FE0004FEA370703B44FF010004FF01001BAF189
:100FF000000F06D0BCF1000FDCBF40F0080040F04D
:1010000008014FF000000FBCBDE810400BF1010BD0
:10101000BBF1010F08BF5FEA170722BF12F10102FF
:1010200011F101014FF0004143F1000300F00040D5
:1010300043EA00007047F9D35708D0E746EA06466E
:1010400013F1400F4FEA16461FDD13F1200FDFBFEB
:1010500016430A46002120335B42BED0C3F120076D
:1010600046EA064602FA07F74FEA164646EA070638
:10107000C3F1200722FA03F201FA07F721FA03F17C
:101080004FF0000342EA0702A7E746EA020646EAF3
:1010900006464FEA164646EA0106BCBF46EA064641
:1010A000360C4FF000034FF000024FF0000194E7C0
:1010B0002DE9804C9A46934670B491E8380007C8F1
:1010C00031EA400C48BF34EA430C03D5FFF7E6FD94
:1010D000FFF780FFF0BCBDE8008C2DE9804C9A46FC
:1010E000934670B491E8380007C810F0804F08BFED
:1010F00013F0804F03D100F005F8FFF76BFFF0BC51
:10110000BDE8008C20F07F4780EA030023F07F4C8D
:1011100007EB0C03A3F57C5300F00040A3F1FE03A2
:1011200092F0000F00F0B38095F0000F00F0778090
:101130002DE901494FEA11404FEA144621EA0048DF
:1011400000FB06FC24EA064708FB06F607FB08F846
:1011500000FB07F718EB06484CEB164C4FEA124B16
:1011600018EB07484FEA15464CEB174022EA0B4EA6
:101170000BFB06FC25EA06470EFB06F607FB0EFEF8
:101180000BFB07F71EEB064E4CEB164C4FF0000620
:101190001EEB074E4CEB174B18EB0B0840F1000011
:1011A00018EB0E0B58EB000840F100008F1A4FF0BF
:1011B00000013CBFC943661B14BFB5EB040C002102
:1011C0003CBFC943F61B4FEA17444EEA8E0E27EA8E
:1011D00004454FEA1C4704FB07622CEA074C05FB59
:1011E00007F70CFB05F604FB0CFC16EB074642EB7D
:1011F000174216EB0C4642EB1C421BEB060658EB63
:101200000202414146EA9E0601D5BDE80189B619B0
:10121000524141EB0101A3F10103BDE801894FEA0D
:1012200014454FEA114724EA054621EA074C05FB1D
:1012300007F406FB07F70CFB06F105FB0CFC11EBB2
:10124000074144EB17444FEA124711EB0C4144EBC2
:101250001C4422EA074C05FB07F206FB07F70CFBD0
:1012600006F605FB0CFC16EB074642EB174216EBA5
:101270000C4642EB1C456A1854F1000148BF704708
:10128000B619524141EB0101A3F10103704795F0FA
:10129000000F37D04FEA11424FEA144721EA0246C5
:1012A00024EA074C02FB07F106FB07F70CFB06F4E8
:1012B00002FB0CFC14EB074441EB17414FEA1547C6
:1012C00014EB0C4441EB1C4125EA074C02FB07F5EB
:1012D00006FB07F70CFB06F602FB0CFC16EB0746B9
:1012E00045EB174516EB0C4645EB1C42121951F124
:1012F000000148BF7047B619524141EB0101A3F10B
:10130000010370474FEA14454FEA114724EA0546A6
:1013100021EA074C05FB07F106FB07F70CFB06F279
:101320004FF0000605FB0CFC12EB074241EB1741A6
:1013300012EB0C4251EB1C4148BF7047921841EB35
:101340000101A3F101037047FEE7000070B58AB008
:10135000184C174E0E9D266004F1400626631C367D
:10136000666363602261C4E902500025C4E9051583
:101370000126E561C4E90856A5622046E56200F051
:1013800019FA10B101200AB070BD039504950E2022
:1013900001950295CDE90860CDE9065600950595C1
:1013A0006946044800F0D2F80028ECD00220EAE7B1
:1013B0000064004048010020014800F03BB90000F3
:1013C0004801002010B54FF4D872036802EB0112F7
:1013D0009B5813F00404436B9C600468436BA4584F
:1013E00054D0E4085C6003689A58436B02F0020230
:1013F000DA604FF4DA72036802EB01129B58446B17
:1014000003F00F03236103689A58436BC2F307226A
:10141000DA614FF4DC72036802EB01129B58446BF3
:10142000237503689B58446B1B0A637503689B58BC
:10143000446B1B0CA37503689A58436B120EDA7544
:101440004FF4DE72036802EB01129B58446B237663
:1014500003689B58446B1B0A637603689B58446B74
:101460001B0CA37603689A58436B120EDA7620227F
:10147000002901680DD00A6101684A6922F0100252
:101480004A6190F83810222909D021E0640D1C60CF
:10149000A9E7CA6001684A6922F00202F0E7016820
:1014A0004A6922F480724A6101684A6922F4007232
:1014B0004A6101684A6922F480624A6101684A69A6
:1014C00022F400624A6101684A6922F400424A61DA
:1014D00090F83810322906D0012180F8381000F039
:1014E000E5FA002010BD1221F7E710B501684A693E
:1014F00022F001024A6190F83810122918D10168CF
:101500004A6922F480724A6101684A6922F40072D1
:101510004A6101684A6922F480624A6101684A6945
:1015200022F400624A6101684A6922F400424A6179
:1015300090F83810322906D0012180F8381000F0D8
:101540009DFB002010BD2221F7E77047F0B50A7D12
:1015500001209040344A136843F00103136013687C
:1015600023F47C53136013684C6A43EA042313602A
:101570002D4D1C352B6883432B602B4C2B4BCE6998
:101580000C34A6B92668864326608F894E6867F3B7
:101590001F464F6903EBC707C7F840660F890E68FF
:1015A00067F31F464F6903EBC707C7F84466CE6968
:1015B000012E14D12668064326600E884C6866F317
:1015C0001F444E6903EBC606C6F840460E89CC6838
:1015D00066F31F444E6903EBC603C3F84446124B3F
:1015E0008C691B1D002C1C6806D004431C600E4B2C
:1015F0000C69143314B104E08443F7E71C68844396
:101600001C600C69012C02D11C6804431C60096A2F
:10161000012902D1296801432960106820F00100E6
:1016200010600020F0BD0000006600400060004037
:101630007047000010B5044600684169C943C907F6
:1016400014D182685849914368D000218368574A71
:101650009A4365D0002283685548984362D00020A1
:101660001143014302D02046FFF73FFF2068C168C5
:10167000406911F0030FC0F3400004D018B10021FD
:101680002046FFF79FFE20680169406911F0030FB3
:10169000C0F3001004D018B101212046FFF792FEDC
:1016A000206881694269C1F300014369C2F30022E5
:1016B000C3F3C03329B122B11BB1E16B41F0010189
:1016C000E1638169C1F3400241694369C1F340218B
:1016D000C3F3C0332AB121B11BB1E16B41F0020168
:1016E000E16381694269C1F38001C2F380234269E9
:1016F000C2F3C03229B123B11AB1E16B41F0040148
:10170000E163816911F0700F0ED000214269C2F3CC
:10171000C0234269C2F3C03241B127E0012195E7FD
:10172000012298E701209BE70121EFE7F3B1EAB13D
:10173000816901F07001402929D006DC102909D007
:1017400020290BD030290DD11DE0502923D060294C
:1017500008D124E0E16B41F0080102E0E16B41F0C7
:101760001001E163816921F070018161E06B002863
:1017700008D0216804204860012084F83800204601
:10178000FFF756FF10BDE16B41F02001E9E7E16B87
:1017900041F04001E5E7E16B41F08001E1E7E16BF9
:1017A00041F48071DDE7000003000004000300083D
:1017B000000003102DE9F041040004D094F8380033
:1017C000002518B107E00120BDE8F08184F8395008
:1017D000204600F091F8022084F838002068016863
:1017E00021F0020101602068016841F001010160FF
:1017F00000F03EFB0746032604E000F039FBC01B67
:101800000A2862D820684068C007F6D0206841687E
:10181000C90767D0A169012901683FD021F0800183
:101820000160E0690128206801683AD021F0400198
:101830000160206A01282068016835D021F020016C
:101840000160606A01282068016830D021F0100131
:101850000160A06A0128206801682BD021F00801EE
:101860000160E06A01282068016826D021F00401A7
:101870000160D4E902010843D4E90412114308438A
:101880006168491E08432168C8612068016821F029
:101890000101016000F0ECFA07461BE041F0800115
:1018A000BEE741F04001C3E741F02001C8E741F045
:1018B0001001CDE741F00801D2E741F00401D7E77C
:1018C00000F0D6FAC01B0A2804D904F8386F0320A8
:1018D000657079E720684068C007F1D120684068EA
:1018E000C00703D0042084F838006CE7E5630120CA
:1018F00084F83800002067E7194800B5016887B010
:1019000041F000710160006800F00070059014481B
:101910001038016841F0010101600068012100F008
:10192000010005904FF4C05000900220CDE9010164
:1019300003900920049069460A4800F0A1F90A487A
:101940000068416941F00201416102220121142035
:1019500000F0D6FA142000F0C8FA07B000BD00006D
:101960004038024000000240480100202DE9F047C5
:10197000044690F8390016460D46012810D04FF065
:10198000010984F8399094F8380012280BD02220ED
:1019900084F8380000F06CFA07464FF0000812E0B7
:1019A0000220BDE8F0873220F2E7701C0BD026B190
:1019B00000F05EFAC01BB04205D9032084F838005D
:1019C00084F83980EDE72068002D66D0006910F0BA
:1019D000030FEAD04FF4D870216800EB05100958C6
:1019E00011F00402616B8A602268616B125856D054
:1019F000D2084A6021680858616B00F00200C86094
:101A00004FF4DA70216800EB05100958626B01F0A1
:101A10000F01116121680858616BC0F30720C8618C
:101A20004FF4DC70216800EB05100958626B1175EA
:101A300021680958626B090A517521680958626B5F
:101A4000090C917521680858616B000EC8754FF438
:101A5000DE70216800EB05100958626B1176216871
:101A60000958626B090A517621680958626B090CA2
:101A7000917621680858616B000EC8762168202095
:101A800085B1086194F8380032280DD0484684F8B2
:101A9000380084F83980002083E7C06897E7520D4A
:101AA0000A60A7E7C860EDE71220F0E7134A016873
:101AB000914221D1124909684A6942F002024A6101
:101AC000416B0968A1F50071013909D001290BD0DA
:101AD00002290DD003290FD101460A4801F004BDA7
:101AE000014608488438F9E7014606485838F5E7C2
:101AF000014604482C38F1E77047000000640040BC
:101B0000480100204C0200202DE9F05F044690F8C7
:101B100039000E46012812D04FF0010984F839909F
:101B200094F8380022280DD0122084F8380021685B
:101B300088684FF00008400106D500250DE002201E
:101B4000BDE8F09F3220F0E78868000101D501254B
:101B500003E08868C0004FD502254FF4C07000EB49
:101B600005100A5802F001020A50216B8A68EAB394
:101B700023681F581743CA68496842EAC1010F43E6
:101B80001F50216B0A7C02F00F020A614FF4C271F0
:101B9000226801EB0511535823F00F0353502268BC
:101BA0005358276B3F693B435350216B4FF4C47329
:101BB00003EB05130A7DD1F8151042EA01222168D2
:101BC000CA50216B4FF4C67303EB05130A7ED1F89C
:101BD000191042EA01212268D15021680A5842F0C6
:101BE00001020A5000F044F9074600E00BE0DFF87C
:101BF00080A0DFF880B01DE0042084F8380084F86D
:101C0000398001209CE722681358CF6809883B433C
:101C100043EA41511150B4E7701C0BD026B100F0DB
:101C200027F9C01BB04205D9032084F8380084F896
:101C3000398085E795B12068012D816813D00E4861
:101C400088430028E8D194F8380032280ED048465E
:101C500084F8380084F83980002071E720688168B2
:101C60002AEA0100EDE72BEA0100EAE72220EFE78C
:101C70000300000400030008000003107047000088
:101C80002DE9F84FDFF8A091002209F1040A0AF1CA
:101C9000040B4FF00F080BF1040E01260B68964061
:101CA0003340B34271D14C68022C01D0122C11D1B7
:101CB000D40800EB84073D6A5407E40E08FA04FCDC
:101CC00025EA0C05D1F810C00CFA04FC4CEA050C0E
:101CD000C7F820C007685400032591F804C0A54048
:101CE0000CF0030CAF430CFA04FC4CEA070CC0F8F0
:101CF00000C04F68012F05D0022F03D0112F01D053
:101D0000122F11D18768D1F80CC0AF430CFA04FC34
:101D10004CEA070CC0F808C04768B7430E79C6F311
:101D2000001696403E434660C668AE438D68A540A7
:101D30003543C5604C68E4006FD53C4C256845F4DC
:101D400080452560246822F0030504F48044009453
:101D5000374C2E19D6F808789407250F08FA05F4A1
:101D6000A743344CA04201D100242EE0324CA042C3
:101D700001D1012429E0314CA04201D1022424E008
:101D80002F4CA04202D103241FE046E02D4CA0427C
:101D900001D1042419E02C4CA04201D1052414E007
:101DA0002A4CA04201D106240FE0294CA04201D1C7
:101DB00007240AE0274CA04201D1082405E0264C64
:101DC000A04201D1092400E00A24AC403C43C6F8FB
:101DD0000848D9F800404D464E689C43F60300D5AC
:101DE0001C432C60DAF8004055464E689C43B6030D
:101DF00000D51C432C60DBF800405D464E689C43D8
:101E0000F60200D51C432C60DEF8004075464E6893
:101E10009C43B60200D51C432C60521C102AFFF4D0
:101E20003CAFBDE8F88F0000003C01404438024060
:101E3000003001400000024000040240000802405F
:101E4000000C024000100240001402400018024042
:101E5000001C0240002002400024024000690840AB
:101E600000D0012070470AB1816170470904FBE787
:101E70000148006870470000140000200248016813
:101E8000491C016070470000140000200B4810B589
:101E9000016841F400710160016841F480610160F2
:101EA000016841F480710160052000F049F80F20BD
:101EB00000F006F800F015F8002010BD003C0240CC
:101EC00010B5044600F096F94FF47A71B0FBF1F0CA
:101ED00000F0AAFB00222146501E00F011F800205D
:101EE00010BD08B50020009008BD00F01F020121C0
:101EF00091404009800000F1E020C0F800117047D7
:101F0000F0B40E4B1B68C3F30223C3F10704042C87
:101F100000D904241D1D072D01D2002300E0DB1E83
:101F2000012606FA04F56D1E0D409D409E40761E6A
:101F3000164045EA0601F0BC00F09ABE0CED00E048
:101F4000064A00F0070110684FF6FF03184040EA08
:101F50000120034908431060704700000CED00E0C9
:101F60000000FA052DE9F8431D48016841F0805151
:101F700001600068012700F080500090380490FA5A
:101F8000A0F0DFF86080B0FA80F048F82070FFF72A
:101F90006FFF04464FF47A75134E04E0FFF768FFB5
:101FA000001BA84213D87068C003F7D54FF4003067
:101FB00090FAA0F0B0FA80F048F82070FFF758FFD0
:101FC000044607E0FFF754FF001BA84202D9032094
:101FD000BDE8F88370688003F4D50020F8E70000BE
:101FE0004038024000000E42007000402DE9F05FD2
:101FF000DFF8F8A104460F46DAF80000DFF8F081B8
:1020000000F00F02C8B27A49814641F2883608F1E1
:102010000808BA4261D202468AF80020DAF80000C5
:1020200000F00F00B8427DD12078800707D5D8F89E
:102030000020A36822F0F0021A43C8F8002020789C
:10204000C0072DD0606801281AD002281BD00328B1
:1020500019D009688907002964DAD8F800104746C2
:1020600021F003010143C8F80010FFF701FF054606
:10207000606801280FD0022818D003281CD027E060
:1020800009688903E7E709688901E4E7FFF7F0FEDB
:10209000401BB04258D83868C0F381000128F5D100
:1020A00088E0FFF7E5FE401BB0424DD83868C0F32A
:1020B00081000228F5D17DE03868FFF7D9FE401B8A
:1020C000B042F9D940E0FFF7D3FE401BB0423BD805
:1020D000386810F00C0FF6D16CE02078800707D537
:1020E000D8F80020A36822F0F0021A43C8F80020B4
:1020F0002078C0074CD06068012828D0022829D059
:10210000032827D009688907002949DAD8F8002070
:1021100022F003020243C8F80020FFF7A9FE05469B
:10212000606800E03CE001281DD0022829D0032887
:1021300038D0B3464646306810F00C0F28D0FFF771
:1021400097FE411B5945F6D90320BDE8F09F096869
:102150008903D9E709688901D6E7FFF789FE411BA2
:10216000594502D9F0E7B34646463068C0F38100CE
:102170000128F2D10CE0FFF77BFE411B594502D943
:10218000E2E7B34646463068C0F381000228F2D148
:102190008AF80090DAF8000000F00F00B84209D089
:1021A0000120D2E744462068FFF762FE401BB042A0
:1021B000F9D9C9E72078400707D5D8F80010E268B8
:1021C00021F4E0511143C8F800102078000708D529
:1021D000D8F80010226921F4604141EAC201C8F830
:1021E00000100F20FFF76CFE0020AEE7003C02401D
:1021F0000038024010B500F043F808490968F022A1
:1022000092FAA2F201F0F001B2FA82F2D140044A4D
:10221000515CC8400349086010BD00000838024006
:10222000F83A00080000002010B5FFF7E3FF074967
:1022300009684FF4E05292FAA2F201F4E051B2FAC6
:1022400082F2D140024A515CC84010BD08380240B9
:10225000F83A000810B5FFF7CDFF074909684FF4B9
:10226000604292FAA2F201F46041B2FA82F2D140E5
:10227000024A515CC84010BD08380240F83A0008D4
:1022800030B51948006810F00C01184812D0184CED
:1022900004290ED008290DD1134A121F11681368A2
:1022A00001F03F015D0247F6C07304D5B4FBF1F0C5
:1022B00003E0204630BDB0FBF1F01168194093FAFD
:1022C000A3F3B3FA83F3D940484311684FF4403283
:1022D00092FAA2F201F44031B2FA82F2D140491CE2
:1022E0004900B0FBF1F030BD083802400024F40092
:1022F00040787D012DE9F84F04460078DFF8FCA214
:10230000BF4DC0074FF0000648D0DAF80010504625
:10231000C1F38101012908D00068C0F381000228BF
:102320000AD1281D0068400206D52868800335D5EB
:102330006068002873D031E0DFF8C49209F1020927
:1023400089F80060FFF794FD074641F2883804E001
:10235000FFF78EFDC11B41457AD828688003F7D46A
:10236000207989F80000606860B1FFF781FD0746B9
:1023700004E0FFF77DFDC11B4145EDD828688003CF
:10238000F7D50BE0FFF774FD074604E0FFF770FD9B
:10239000C11B4145E0D828688003F7D42078DFF8D6
:1023A0006492800744D5DAF80010504611F00C0F03
:1023B0004FF0F80809D00068C0F3810002280BD163
:1023C0008E48001F0068400206D42868800714D594
:1023D000E068012823D110E0E068D0B10120C9F8FD
:1023E0000000FFF745FD074604E0FFF741FDC01B75
:1023F0006428B1D828688007F7D5286898FAA8F229
:102400002169B2FA82F220F0F80091400843286076
:102410000EE0C9F80060FFF72BFD074605E0EAE093
:10242000FFF726FDC01B642812D828688007F7D460
:102430002078000725D5DFF8C4817348616908F169
:102440006C0881B101210160FFF712FD074605E02C
:102450007EE0FFF70DFDC01B642879D8D8F8000096
:102460008007F6D50DE00660FFF702FD074604E0A1
:10247000FFF7FEFCC01B64286AD8D8F8000080076C
:10248000F6D42078400753D55C483830016841F0D5
:10249000805101600068DFF8748100F08050009086
:1024A000D8F8001041F48071C8F80010FFF7E0FC84
:1024B000074604E0FFF7DCFCC01B642848D8D8F8C6
:1024C0000000C005F6D5DFF834B10BF1680B8BF8CE
:1024D0000060FFF7CDFC074641F2883804E0FFF7C3
:1024E000C7FCC11B41457ED8DBF800008007F6D44D
:1024F000207A8BF80000A06868B1FFF7B9FC0746A6
:1025000004E0FFF7B5FCC11B41456CD8DBF80000C7
:102510008007F6D50CE0FFF7ABFC074604E0FFF7B9
:10252000A7FCC11B41455ED8DBF800008007F6D44C
:10253000A069E8B3DAF80010C1F3810102295AD08A
:10254000022806D0C9F86060FFF792FC04464DE00F
:1025500049E04F46C9F86060FFF78AFC064604E090
:10256000FFF786FC801B64283DD828688001F7D4DB
:10257000D4E90701084347F6C07191FAA1F1626AF4
:10258000B1FA81F18A40A16A4FF0FF3303EB5101A8
:102590004FF4403393FAA3F3B3FA83F399400A4319
:1025A00010434FF0706292FAA2F2B2FA82F200E0A7
:1025B0001FE0E16A914008431049091F08600120AB
:1025C0003866FFF755FC044604E0FFF751FC001B9A
:1025D000642808D828688001F7D50AE0FFF748FC8E
:1025E000001B642802D90320BDE8F88F2868800109
:1025F000F4D40020F8E70120F6E700000838024094
:102600000038024000004742800E47420070004000
:102610004FF0E0210428086903D020F0040008618D
:10262000704740F00400FAE710B5401EB0F1807F1B
:1026300001D3012010BD4FF0E02460610F2160172D
:1026400000F016FB0020A06107202061002010BDD3
:1026500070B5044690F838000D4601280DD00126CB
:1026600084F83860022084F8390042B1042A18D076
:10267000082A2AD00C2A4DD139E0022070BD2068EA
:1026800000F050FC2068816941F0080181612068F8
:10269000816921F004018161206881692A691143FF
:1026A00011E0206800F06AFC2068816941F4006153
:1026B00081612068816921F480618161206881697C
:1026C0002A6941EA0221816124E0206800F088FC47
:1026D0002068C16941F00801C1612068C16921F029
:1026E0000401C1612068C1692A69114311E02068B1
:1026F00000F0A6FC2068C16941F40061C161206856
:10270000C16921F48061C1612068C1692A6941EA17
:102710000221C16184F83960002084F8380070BD5E
:1027200010B5040003D094F8390010B107E001207F
:1027300010BD002084F83800204600F00DF802207B
:1027400084F83900211D206800F080FB012084F806
:102750003900002010BD000000B500681A4987B09C
:1027600088422ED11948016841F0020101600068D9
:1027700000F00200059015481038016841F004018E
:102780000160016801F004010591016841F0010157
:1027900001600068012100F0010005904FF46070B5
:1027A00000900220CDE901010321CDE90310694623
:1027B0000748FFF765FA4020009069460548FFF793
:1027C0005FFA07B000BD000000040040403802403E
:1027D000000802400000024010B5044600680122D3
:1027E00000F094FB08482168814202D007488142EA
:1027F00003D1486C40F4004048642068016841F00F
:1028000001010160002010BD0000014000040140F2
:10281000704738B5016804460868CA68C0F300000C
:1028200002F4807238B132B1086848680090E06BF9
:1028300040F00100E06308684A69C0F3400002F01C
:10284000010238B132B1086848680090E06B40F08E
:102850000400E06308684A69C0F3800002F00102E6
:1028600038B132B1086848680090E06B40F002006F
:10287000E06308684A69C0F3C00002F0010238B1A1
:1028800032B1086848680090E06B40F00800E063EF
:102890000868C968C0F3401001F0200118B111B1F7
:1028A000204600F0F5FB20680168C068C1F3C01144
:1028B00000F0800019B110B1204600F0F7FC21684B
:1028C0000868CA68C0F3801002F04002012568B1B0
:1028D00062B1CA68204622F04002CA6094F83910FA
:1028E00032290CD080F8395000F0ECF8E06B002869
:1028F00004D084F839502046FFF78AFF38BD2221E2
:1029000080F83910F0E770B5040004D094F839006D
:10291000002510B106E0012070BD84F83850204633
:1029200000F020F8022084F839002068C16821F402
:102930000051C160204600F0FFFB2068016921F4CE
:10294000904101612068416921F02A0141612068BC
:10295000C16841F40051C160E563012084F8390089
:10296000002070BD30B504460068204987B0884219
:1029700039D11F48016841F001010160006800F091
:10298000010005901A481430016841F010010160FF
:102990000068012100F0100005904FF400700090D5
:1029A0000220CDE9010103900720124D04906946F1
:1029B0002846FFF765F92815009069462846FFF775
:1029C0005FF92068C16821F04001C1602068C168DA
:1029D00041F02001C1602520FFF787FA032211464C
:1029E0002520FFF78DFA07B030BD00000010014030
:1029F00030380240000002402DE9F047044690F8CC
:102A0000390099460D46012801D0122857D125B327
:102A10001AB394F83800012851D0012684F83860A0
:102A20000027E76394F83900122819D0222084F88F
:102A30003900A285E2854FF48058E08D4B46401E58
:102A4000E085A0684FF0000240454FF0200120468D
:102A500016D100F05EFCB0B904E00120BDE8F087BB
:102A60003220E4E7206900282068406803D0C1B222
:102A700025F8011B12E0C0F3080125F8021B0DE048
:102A800000F047FC08B10320E8E72069002820682F
:102A9000406801D000F07F0005F8010BE08D0028B0
:102AA000CBD194F83900322805D084F8396084F805
:102AB00038700020D2E7122084F83900F7E70220AE
:102AC000CCE770477047FEE770B51B4886B000251D
:102AD000016841F001010160016801F00101059107
:102AE000016841F004010160016801F004010591F1
:102AF000016841F0800101600068032400F080005B
:102B0000059002200126CDE90204CDE90065694661
:102B10000A48FFF7B5F8700303948DE86100694631
:102B20000748FFF7ADF80C20009069460548FFF70D
:102B3000A7F806B070BD0000303802400000024027
:102B400000080240001C02402DE9F0470126304CED
:102B50007703DFF8C080DFF8C090304D01281DD02A
:102B60002078A0B108212846FFF778F9C0B10421E8
:102B70002846FFF773F998B139464046FFF76EF9DA
:102B800070B101214846FFF769F9012808D00821F2
:102B90002846FFF763F9012826D037E02670E1E7E1
:102BA0000A2000F06FFC0020207008212846FFF763
:102BB00055F980B104212846FFF750F970B1394624
:102BC0004046FFF74BF958B101214846FFF746F957
:102BD000012807D01AE00120BDE8F0870220FBE7BA
:102BE0000320F9E70420F7E704212846FFF736F928
:102BF00001280BD139464046FFF730F9012805D1AD
:102C000001214846FFF72AF900B926700020E3E7C2
:102C1000240000200008024000000240001C024086
:102C2000104810B5016886B041F0020101600068EB
:102C3000012100F0020005900320CDE90210CDE94A
:102C40000001094C69462046FFF71AF80122114697
:102C50002046FFF708F9012202212046FFF703F979
:102C600006B010BD3038024000040240FEE7704755
:102C70000907090E002806DA00F00F0000F1E02035
:102C800080F8141D704700F1E02080F800147047B0
:102C900030B4034C4466034C846630BC00F050BE34
:102CA000413900084F39000810B56B2144F61F6008
:102CB00000F07EF8054840F2DC510268516302687A
:102CC00091630068C163016410BD0000FC02002034
:102CD0007047704770B51E4C92B00025266846F0CC
:102CE00080562660246804F080541194194C26689C
:102CF00046F44046266024680DF1240C04F4404458
:102D00001194012400940194022406948CE80D008F
:102D10006605CDE907616846FFF7ECFA00B1FEE70A
:102D2000FFF720F900B1FEE70CA90F2081E8310080
:102D30004FF4A0500F904FF48050109005210CA834
:102D4000FFF754F9002800D0FEE712B070BD000074
:102D50004038024000700040FFF790B8104801680A
:102D600041F4700101600F48016841F00101016008
:102D70000C4A00210832116002680B4B1A400260B5
:102D8000031D0A4A1A60026822F480220260054884
:102D90000C30016002495806803908607047000015
:102DA00088ED00E000380240FFFFF6FE10300024FE
:102DB00070B5254A04462348C2E900010020C2E953
:102DC000020410611046FFF7ABFC1F4902263C319C
:102DD000702564088E60C1E9005400221A48FFF78C
:102DE00037FC00211848FFF7F7FC17480422583039
:102DF00001468660C0E900545838FFF729FC0421D9
:102E00001148FFF7E9FC104808227430014686603B
:102E1000C0E900547438FFF71BFC08210A48FFF78B
:102E2000DBFC09480C22903001468660C0E9005462
:102E30009038FFF70DFCBDE870400C210248FFF709
:102E4000CBBC000000040040FC020020F0B502688A
:102E5000234D244E244FDFF894C0254B4FF0804E75
:102E6000A84209D0704507D0B04205D0B84203D07F
:102E7000604501D0984203D122F070044A68224391
:102E8000A8421BD0704519D0B04217D0B84215D017
:102E9000604513D0984211D0164CA0420ED0164C6B
:102EA000A0420BD0154CA04208D0154CA04205D032
:102EB000144CA04202D0144CA04203D122F440741E
:102EC000CA68224302608A68C2620A688262A842B3
:102ED00001D0984201D10969016301214161F0BD2E
:102EE000000001400004004000080040000C0040C9
:102EF00000040140004001400044014000480140FE
:102F000000180040001C00400020004010B50123C4
:102F1000046A8B409C430462036A8A401343036241
:102F200010BD000030B5026A22F001020262056A9B
:102F3000426883690C6823F073031C438B6825F097
:102F400002052B430B4DA84202D00B4DA8420BD1DA
:102F500023F00805CB6822F440722B434D6923F01F
:102F6000040315438A692A434260846149684163C6
:102F7000036230BD000001400004014030B5026A28
:102F800022F010020262036A426884690D6824F428
:102F9000E64444EA05248D6823F0200343EA051340
:102FA0000D4DA84202D00D4DA8420ED1CD6823F0A0
:102FB000800343EA05134D6922F4406242EA850228
:102FC0008D6923F0400342EA8502426084614968CA
:102FD0008163036230BD0000000001400004014035
:102FE00030B5026A22F480720262036A4268C469E0
:102FF00023F4007324F073050C682C438D6843EAB6
:1030000005230D4DA84202D00C4DA8420ED1CD682B
:1030100023F4006343EA05234D6922F4405242EA57
:1030200005128D6923F4806342EA05124260C4618F
:103030004968C163036230BD0000014000040140E3
:1030400030B5026A22F480520262036A4268C4699F
:103050000D6824F4E64444EA05248D6823F4005303
:1030600043EA0533084DA84202D0084DA84204D1D6
:103070004D6922F4804242EA85124260C461496887
:103080000164036230BD0000000001400004014003
:1030900010B590F83910222903D0322901D002202E
:1030A00010BD8168B1F5805F11D001690029016808
:1030B0001FD0496801F07F03816A4A1C82620B704D
:1030C000C18D491E0904090CC18518D02FE0026981
:1030D000816A002A0268526805D0D2B20A80816AE9
:1030E000491C8162ECE7C2F308020A80816A891CEC
:1030F000F7E74A68816A4B1C83620A70E0E701685F
:10310000CA6822F02002CA6090F83910322910D023
:103110000168CA6822F48072CA6001684A6922F0B4
:1031200001024A61012180F83910FFF7CAFC002032
:1031300010BD1221F7E700002DE9F04104460068B8
:103140000169E26821F440510A4302612068C168C4
:1031500049F20C6291432369A268E5691A436369E5
:103160002B431A430A43C2602068416921F440722C
:10317000A16911434161E06964263225B0F5004F31
:10318000484A494920681DD0884201D0904269D1FF
:10319000FFF760F800EBC00101EB00106168B0467A
:1031A0008900B0FBF1F1B1FBF8F6FFF753F800EB43
:1031B000C00101EB001061688900B0FBF1F7FFF777
:1031C00049F868E0884201D0904219D1FFF742F8EF
:1031D00000EBC00101EB00106168B0464900B0FB94
:1031E000F1F1B1FBF8F6FFF735F800EBC00101EBA8
:1031F000001061684900B0FBF1F7FFF72BF818E009
:10320000FFF712F800EBC00101EB00106168B04657
:103210004900B0FBF1F1B1FBF8F6FFF705F800EB60
:10322000C00101EB001061684900B0FBF1F7FEF747
:10323000FBFF00EBC00101EB001061684900B0FB2F
:10324000F1F1B1FBF8F06FF01801484307EB800093
:1032500005EB0011B1FBF8F0216866F31F108860E0
:10326000BDE8F081FEF7E0FF00EBC00101EB0010CC
:103270006168B0468900B0FBF1F1B1FBF8F6FEF7EA
:10328000D3FF00EBC00101EB001061688900B0FBC7
:10329000F1F7FEF7C9FF00EBC00101EB0010616818
:1032A0008900CCE7001401400010014090F839106B
:1032B000122903D0322901D0022070478168B1F56C
:1032C000805F016A0BD04A1C026202680978516073
:1032D000C18C491E0904090CC1840ED017E009886D
:1032E0000268C1F30801516001690029016A02D036
:1032F000491C0162ECE7891CFBE70168CA6822F0FF
:103300008002CA600068C16841F04001C1600020CD
:1033100070472DE9F0471D4690460F460446FEF7DC
:10332000A7FD06465FEA08004FF000094FF00108CC
:1033300008D030E0681C05D095B1FEF799FD801BE0
:10334000A8420DD82068006837EA0000F2D127E0D3
:10335000681C20D025B1FEF78BFD801BA8421AD92E
:103360002068C16821F08001C1602068C16821F037
:103370002001C1602068C16821F48071C1602068AB
:10338000416921F00101416184F8398084F8389065
:103390000320BDE8F0872068006837EA0000D7D036
:1033A0000020F6E738B5184800680068C04380067A
:1033B00022D44FF47A73012269461348FFF71CFBAD
:1033C000124A1088010417D441049DF800104FF0F0
:1033D000000304D50A290ED140F4004012E00D2963
:1033E0000ED0C0F30D04084D401CC83D80B22955D5
:1033F0001080C72800D913800348FFF70AFA38BDA8
:1034000040F480401080F7E7080100201C000020F5
:10341000FEE703B401984100009850EAC12018BFAC
:1034200004204A0D18BF40F0010040F2FF72B2EBD9
:10343000515F08BF40F00200012808BF052002B01C
:1034400070477047D0ED000AF4EEC00AF1EE10FAB2
:1034500001DD80ED000AD0ED000AB1EE400AF4EE85
:10346000C00AF1EE10FA01D280ED000A70470000A8
:1034700010B504460420FFF7CBF80148046010BDE6
:103480001800002070B5054600244FF47A7603E05A
:10349000304600F005F8641CAC42F9D370BD000062
:1034A00070B54FF0E02500216C69094AAB691268DC
:1034B0005043AA699A42FCD002D2A3EB020302E075
:1034C000A4EB02063344194413468142F1D370BD84
:1034D0001800002003490A685206FCD5C2B24A60AF
:1034E000704700000010014070B50D4604460022F0
:1034F00011462846FEF73AFA08B1002070BD22892D
:103500006281686B6FF00403808A40BA2081696B26
:10351000C98A49BA61802180696B098B49BA09B2AD
:1035200091FBF3F1A180696B897EA171811AB1F5DC
:10353000805F02DD2169491E04E011F5805F216989
:1035400001DA491C216100EB4130A189401A606118
:10355000686B007C70BD00002DED028BADF5247D05
:103560004FF47A76FEF792FC0823022219214FF4D9
:10357000B470FFF7AFFBB420FFF77AFF4FF4E130F0
:1035800000F014FAFFF74CFBFFF79EFAF0060090EC
:1035900003234FF4E0224FF4A0010020FDF7D6FEF4
:1035A000FFF782FB00249FED618ADFED618ADFF87F
:1035B00084B14FF480486FF00F0A02AF04EBC400EF
:1035C00000EB400007EB8000B0EE481AF0EE680A0E
:1035D000B7EE080A424643460321FFF759FB641C35
:1035E000E4B2042CEAD3544C54495548FFF77CFF0D
:1035F00058B1B946DFF84C815F460020FFF7A4FAC6
:1036000001280BD002280BD00CE0D4F88402C04370
:10361000C4F88402C820FFF735FFE5E76D1C00E021
:103620006D1E6DB2554501DA554602E0102D00DDE4
:1036300010254FF4FA7105FB01F000EE100A00248A
:10364000B8EEC00A87ED030A87ED020A87ED010A8A
:1036500087ED000A07EB8400D0ED000A04EB44007C
:1036600000EBC402BDEEE00A38F9220010EE101A99
:10367000091A09B2B14201DD811903E07242914297
:1036800004DA811B00EE101AF8EEC00A00EE100AF0
:1036900004EBC40000EB4001B8EEC00A09EB810066
:1036A00000F06EF8641CE4B2052CD3D3119800F03E
:1036B000ABF941EC100B24A053EC102BFCF7F8FDF8
:1036C000B8F9001024A0FCF7F3FD386800F09CF96D
:1036D00041EC100B25A053EC102BFCF7E9FD9DED00
:1036E000620ABDEEC00A10EE100A9DED470A00B254
:1036F000BDEEC00A10EE101A09B2CDE900109DED22
:103700002C0A4FF40071BDEEC00A10EE100A9DEDB8
:10371000110A03B2BDEEC00A10EE100A02B2074849
:1037200000F018F90520FFF7ADFE66E70000000085
:10373000CDCCCC3D28000020008040424801002034
:10374000D0020020C8010020504944206F75743A0F
:103750002025660D0A0000007265616C207370659B
:1037600065643A202564200D0A000000736574200A
:1037700073706565643A202566200D0A000000001C
:1037800000B530EEC01A80ED080AC0ED050A80EDE4
:103790000B1AD0ED141A01469FED682A30EEC00ACC
:1037A000F5EEC01AB1EE400AF1EE10FA0ED0B5EE09
:1037B000C01AF1EE10FA02DDF0EE410A01E0F0EE7F
:1037C000400AF4EEE10AF1EE10FA12DCD1ED150A2E
:1037D000F5EEC00AF1EE10FA0ED0B5EEC01AF1EE19
:1037E00010FA01DDB0EE410AB4EEE00AF1EE10FA93
:1037F00002D2B0EE420A00BD8A6D01F13400032A04
:1038000002D0042A37D078E091ED000A20EE010AB8
:1038100081ED0C0A91ED0D0AD1ED010A00EE810A4D
:1038200081ED0D0A91ED0A0AD1ED020A31EE400A4E
:1038300020EE200A81ED0E0A91ED180AB8EE400A3A
:10384000FFF700FE91ED0C0AD1ED0D0A01F13C00ED
:1038500030EE200AD1ED0E0A30EE200A81ED0F0A7B
:1038600091ED170AB8EE400AFFF7ECFD91ED0F0A53
:1038700081ED100A41E091ED0A0AD1ED001A71EED6
:10388000400A60EEA10AC1ED0C0AD1ED010A60EE1A
:10389000810AC1ED0D0AF0EE000A00EE601A91ED0A
:1038A000090AD1ED020A31EE000A20EE200A81ED6C
:1038B0000E0A91ED180AB8EE400AFFF7C3FD91ED2C
:1038C0000C0AD1ED0D0A01F1480030EE200AD1EDCD
:1038D0000E0A30EE200A81ED110AD1ED130A30EE06
:1038E000800A81ED120A91ED170AB8EE400AFFF73F
:1038F000A9FD91ED120A81ED130A91ED0A0A81EDFD
:10390000090A91ED0B0A81ED0A0A91ED070A81ED92
:10391000060A91ED080A81ED070A91ED040A81ED8E
:10392000030A91ED050A81ED040A886D032802D08F
:1039300091ED120A00BD91ED0F0A00BD00000000DC
:1039400000F1580C8CE80E0080EC030A704780EC04
:10395000030A704770B5066BDDE904543160066BED
:103960000021B160066BF160066B08213161066BC6
:10397000110A3175016B4A75026B190A9175016B59
:10398000CB75026B290A1176016B4D76026B210A09
:103990009176006B4FF47A71C4760348FEF7B4F861
:1039A000002800D0012070BD480100200749064AC8
:1039B000C1E9002000208860C860086188610C208F
:1039C00048610846FEF79FBF001001400801002033
:1039D00010B500290AD00878002807D00548784497
:1039E000FDF7AAF8002801D0002010BD0248784455
:1039F00010BD0000DE010000D60100000808A0F59F
:103A000000114FEA3101704743004FEAD30C4FEAEF
:103A10003C0C43401FBF40070CF1605113F0FE4FB8
:103A200070471CF0006F03D100200CF0004170477C
:103A30000CF0004343EA507010B540EACC0000F0AF
:103A40000EF800BF000000924FEA0001FFF7D6BF5A
:103A50004FF000414FF00000A1F5002170470EF13A
:103A6000020E2EF0030E5EF8044B244204D44FEAFB
:103A70004102B2F17F4F11D84FEA4003B3F17F4FBB
:103A80000CD80ED14FEAD07CB2F17F4F0CEB4C0C2E
:103A90000CF1020C08BF4CEBD17C04E04FF0080C99
:103AA00001E04FEAD17C0CEB4C0324FA03F404F060
:103AB0000704B4F1040C06D20EEB840CBDE81040F0
:103AC0004CF0010C6047DFE80CF0070802024FF0F1
:103AD0000040A0F5800010BD0846420018BFD2F19A
:103AE000807288BF00F0004010BD4FF04070E1EEE2
:103AF000100A7047FCF78EBD0000000001020304AD
:103B0000010203040607080902400000000000A0AB
:103B10000000000005400000000000C80000000098
:103B20000C4000000000409C000000001940000014
:103B30000020BCBE0000000034400000BFC91B8E46
:103B400000000004B5400000504BCFD06607E2CF24
:103B5000010000006C4100003E8251AADFEEA73454
:103B600001000000D9420000DCB5A0E23A301F9706
:103B7000FFFFFFFFB4450000FD25A0C8E9A3C14F2A
:103B8000FFFFFFFFFF3F000000000080000000007B
:103B9000FF3F00000000008000000000D83B00084C
:103BA0000000002028000000E8010008003C000898
:103BB00028000020E0090000040200081C000000AA
:103BC00043000000F8FFFFFF0C0000000E000000A3
:103BD0000F0000002E0000000024F4000000000090
:103BE00000000000010203040607080900000000AD
:103BF00000000000000000000000000001000000C4
:04000005080001AD41
:00000001FF
